:1000000045EF00F00000000000EF00F000000000ED
:0A0010000000000000000000F3D71C
:10001C0081A805D0818A819C819E016A026A81B87F
:10002C001BD0000E021802E1000E011815E1819A96
:10003C00818C060E0B6E130E0C6EAD0E0D6E0D2E0E
:10004C00FED70C2EFCD70B2EFAD700000000819C9B
:10005C00010E016E000E026E81B808D0000E02185F
:0E006C0002E1010E011802E1819C818E12005A
:10007A000900F5CFE6FF0006FBE10106F9E11200EF
:10008A000F0EC1129380938293848180818281842E
:10009A008188956A939A939C939E836A819C819A9C
:1000AA00819E836A946A94909492B3DFFED7FFD7B5
:020000040030CA
:0D00010002191EFF8181FF0FC00FE00F40AC
:00000001FF
